:1000000012C018951895189518951895FCC0189554
:10001000189585C01895189518951895FFC01895CE
:1000200018951895189504E00EBF0FE50DBF112423
:1000300002E007BB14BA0FEF01BB07E205BBC39A8E
:10004000C49AC59AC29A312C412C05E003BF01E045
:1000500009BF90E080EFFDD08770282E24D190E07A
:1000600081EFF7D0813019F4C298BA9A02C0C29ACF
:10007000BA98109260001092610010926200109283
:1000800063001092640055246624772412B81798F0
:1000900007E607B90EEC06B9ECD07894822D119BD7
:1000A0000AC01198873010F4239401C0212CEBD0A2
:1000B000E0D0F9D01FC0129B0BC01298813010F015
:1000C0002A9402C087E0282EDED0D3D0ECD012C014
:1000D000139B04C01398D7D0FED00CC0149B0AC049
:1000E0001498C29B03C0C298BA9A02C0C29ABA9826
:1000F000CAD0BFD0169B02C01698C5D0179B0EC0A1
:1001000017988FE092E3C1D090E080EF622DA8D0E5
:100110006627C29B61E090E081EFA2D0BFCF0F9332
:100120000FB70F9302EB02BF99990FC000916000C7
:100130000395002349F000936000073011F4119AF1
:1001400003C0063909F4179A02C0109260009A9908
:100150000FC0009161000395002349F000936100F6
:10016000073011F4129A03C0063909F4179A02C035
:100170001092610098990DC0B89AC09800916200E1
:100180000395002329F000936200073009F4139AC5
:1001900004C010926200B898C09A9D990FC0009157
:1001A00063000395002349F000936300073011F4C6
:1001B000149A03C0063909F4179A02C0109263001A
:1001C000419B0FC0009164000395002349F0009308
:1001D0006400073029F4772019F4169A04E6702E8B
:1001E00002C010926400332039F03A9429F41FBC05
:1001F0001EBC09B70F7E09BF772009F07A940F91D2
:100200000FBF0F9118953F932F933BB52AB5240D3F
:10021000311D3BBD2ABD2F913F9118958F938FB70C
:100220008F9384B185B18F3378F0803D08F4539477
:100230006394862D803541F4852D893210F0419AE2
:1002400001C04198882755248F918FBF8F91369A8E
:100250001895E199FECF9FBB8EBBE09A8DB30895B0
:10026000F8DF861701F06DBBF894E29AE19A789472
:100270000895F2E0E8EEE20DF11D31960491C29B83
:100280000F7B02BB08958FE193E000E40FBD04E013
:100290000EBD1DBC1CBC1BBC8ABD392E482E09B727
:1002A000006109BF089520FCC39820FEC39A21FC79
:1002B000C49821FEC49A22FCC59822FEC59A20FE4D
:1002C000BB9820FCBB9A21FEBC9821FCBC9A22FE64
:1002D000BD9822FCBD9AB89AC09890E280E0019740
:1002E000F1F7C09AB8980895447DD058694A427C85
:0202F000404884
:00000001FF
